{
  "contractName": "MobileAdder",
  "abi": [
    {
      "constant": true,
      "inputs": [],
      "name": "phonecount",
      "outputs": [
        {
          "name": "",
          "type": "uint256"
        }
      ],
      "payable": false,
      "stateMutability": "view",
      "type": "function",
      "signature": "0x49145ff9"
    },
    {
      "constant": true,
      "inputs": [
        {
          "name": "",
          "type": "uint256"
        }
      ],
      "name": "phone",
      "outputs": [
        {
          "name": "id",
          "type": "uint256"
        },
        {
          "name": "name",
          "type": "string"
        },
        {
          "name": "price",
          "type": "uint256"
        }
      ],
      "payable": false,
      "stateMutability": "view",
      "type": "function",
      "signature": "0xef8973e2"
    },
    {
      "anonymous": false,
      "inputs": [
        {
          "indexed": false,
          "name": "id",
          "type": "uint256"
        },
        {
          "indexed": false,
          "name": "name",
          "type": "string"
        },
        {
          "indexed": false,
          "name": "price",
          "type": "uint256"
        }
      ],
      "name": "phoneAdded",
      "type": "event",
      "signature": "0xe58c050b0ccd63c01864fd373a797bb12552b8ee83e727f12297968392c190bb"
    },
    {
      "constant": false,
      "inputs": [
        {
          "name": "_name",
          "type": "string"
        },
        {
          "name": "_price",
          "type": "uint256"
        }
      ],
      "name": "addMobile",
      "outputs": [],
      "payable": false,
      "stateMutability": "nonpayable",
      "type": "function",
      "signature": "0x59231507"
    },
    {
      "constant": false,
      "inputs": [
        {
          "name": "_id",
          "type": "uint256"
        }
      ],
      "name": "removeMobile",
      "outputs": [],
      "payable": false,
      "stateMutability": "nonpayable",
      "type": "function",
      "signature": "0x77b08962"
    }
  ],
  "bytecode": "0x608060405234801561001057600080fd5b5061062a806100206000396000f3fe6080604052600436106100615763ffffffff7c010000000000000000000000000000000000000000000000000000000060003504166349145ff98114610066578063592315071461008d57806377b0896214610144578063ef8973e21461016e575b600080fd5b34801561007257600080fd5b5061007b61021e565b60408051918252519081900360200190f35b34801561009957600080fd5b50610142600480360360408110156100b057600080fd5b8101906020810181356401000000008111156100cb57600080fd5b8201836020820111156100dd57600080fd5b803590602001918460018302840111640100000000831117156100ff57600080fd5b91908080601f0160208091040260200160405190810160405280939291908181526020018383808284376000920191909152509295505091359250610224915050565b005b34801561015057600080fd5b506101426004803603602081101561016757600080fd5b503561032e565b34801561017a57600080fd5b506101986004803603602081101561019157600080fd5b50356103fb565b6040518084815260200180602001838152602001828103825284818151815260200191508051906020019080838360005b838110156101e15781810151838201526020016101c9565b50505050905090810190601f16801561020e5780820380516001836020036101000a031916815260200191505b5094505050505060405180910390f35b60005481565b6000805460019081018083556040805160608101825282815260208082018881528284018890529386528481529190942084518155915180519293610271939085019291909101906104a7565b50604082015181600201559050507fe58c050b0ccd63c01864fd373a797bb12552b8ee83e727f12297968392c190bb60005483836040518084815260200180602001838152602001828103825284818151815260200191508051906020019080838360005b838110156102ee5781810151838201526020016102d6565b50505050905090810190601f16801561031b5780820380516001836020036101000a031916815260200191505b5094505050505060405180910390a15050565b6000546001111561033e57600080fd5b60008181526001602081905260408220828155919061035f90830182610525565b5060006002919091018190558054600019019055600181015b60005460010181116103f757600081815260016020819052604080832060001980860185529190932083548155838301805491936103c8938582019360029281161561010002909101160461056c565b506002918201549101556000198082016000908152600160208190526040909120805490920190915501610378565b5050565b600160208181526000928352604092839020805481840180548651600296821615610100026000190190911695909504601f810185900485028601850190965285855290949193929091908301828280156104975780601f1061046c57610100808354040283529160200191610497565b820191906000526020600020905b81548152906001019060200180831161047a57829003601f168201915b5050505050908060020154905083565b828054600181600116156101000203166002900490600052602060002090601f016020900481019282601f106104e857805160ff1916838001178555610515565b82800160010185558215610515579182015b828111156105155782518255916020019190600101906104fa565b506105219291506105e1565b5090565b50805460018160011615610100020316600290046000825580601f1061054b5750610569565b601f01602090049060005260206000209081019061056991906105e1565b50565b828054600181600116156101000203166002900490600052602060002090601f016020900481019282601f106105a55780548555610515565b8280016001018555821561051557600052602060002091601f016020900482015b828111156105155782548255916001019190600101906105c6565b6105fb91905b8082111561052157600081556001016105e7565b9056fea165627a7a72305820c62393238dbf1c9e4ba7fbc72c4376e432a7c9a6363900c89c52a66e414828820029",
  "source": "pragma solidity ^0.5.0;\r\n\r\ncontract MobileAdder{\r\n    \r\n    struct Mobile{\r\n        uint id;\r\n        string name;\r\n        uint price;\r\n    }\r\n\r\n    event phoneAdded(\r\n        uint id,\r\n        string name,\r\n        uint price\r\n    );\r\n\r\n    uint public phonecount;\r\n\r\n    mapping(uint => Mobile) public phone;\r\n\r\n    function addMobile(string memory _name, uint _price) public {\r\n        phonecount++;\r\n        phone[phonecount] = Mobile(phonecount, _name, _price);\r\n        emit phoneAdded(phonecount, _name, _price);\r\n    }\r\n    function removeMobile(uint _id) public {\r\n        require(phonecount >= 1);\r\n        delete phone[_id];\r\n        phonecount--;\r\n\r\n        // update the id of each phone after the removed phone\r\n        for (uint i = _id + 1; i <= phonecount + 1; i++) {\r\n            phone[i - 1] = phone[i];\r\n            phone[i - 1].id--;\r\n        }\r\n    }\r\n}",
  "sourcePath": "E:/Blockchain/mobile-adder/contracts/MobileAdder.sol",
  "compiler": {
    "name": "solc",
    "version": "0.5.0+commit.1d4f565a.Emscripten.clang"
  },
  "schemaVersion": "3.0.1",
  "updatedAt": "2023-04-11T09:47:03.684Z",
  "devdoc": {
    "methods": {}
  },
  "userdoc": {
    "methods": {}
  }
}